{
  "_format": "hh-sol-artifact-1",
  "contractName": "Lottery",
  "sourceName": "contracts/Lottery.sol",
  "abi": [
    {
      "inputs": [],
      "stateMutability": "nonpayable",
      "type": "constructor"
    },
    {
      "inputs": [
        {
          "internalType": "address",
          "name": "have",
          "type": "address"
        },
        {
          "internalType": "address",
          "name": "want",
          "type": "address"
        }
      ],
      "name": "OnlyCoordinatorCanFulfill",
      "type": "error"
    },
    {
      "anonymous": false,
      "inputs": [
        {
          "indexed": false,
          "internalType": "string",
          "name": "message",
          "type": "string"
        },
        {
          "indexed": false,
          "internalType": "uint256",
          "name": "number",
          "type": "uint256"
        }
      ],
      "name": "RandomNumberReceived",
      "type": "event"
    },
    {
      "anonymous": false,
      "inputs": [
        {
          "indexed": false,
          "internalType": "string",
          "name": "",
          "type": "string"
        },
        {
          "indexed": false,
          "internalType": "uint256",
          "name": "",
          "type": "uint256"
        },
        {
          "indexed": false,
          "internalType": "address payable",
          "name": "",
          "type": "address"
        }
      ],
      "name": "RoundOver",
      "type": "event"
    },
    {
      "inputs": [],
      "name": "getCollectedAmount",
      "outputs": [
        {
          "internalType": "uint256",
          "name": "",
          "type": "uint256"
        }
      ],
      "stateMutability": "view",
      "type": "function"
    },
    {
      "inputs": [],
      "name": "getParticipants",
      "outputs": [
        {
          "internalType": "address payable[]",
          "name": "",
          "type": "address[]"
        }
      ],
      "stateMutability": "view",
      "type": "function"
    },
    {
      "inputs": [],
      "name": "getResults",
      "outputs": [],
      "stateMutability": "nonpayable",
      "type": "function"
    },
    {
      "inputs": [
        {
          "internalType": "uint256",
          "name": "",
          "type": "uint256"
        }
      ],
      "name": "lotteryHistory",
      "outputs": [
        {
          "internalType": "address payable",
          "name": "",
          "type": "address"
        }
      ],
      "stateMutability": "view",
      "type": "function"
    },
    {
      "inputs": [],
      "name": "lotteryId",
      "outputs": [
        {
          "internalType": "uint256",
          "name": "",
          "type": "uint256"
        }
      ],
      "stateMutability": "view",
      "type": "function"
    },
    {
      "inputs": [],
      "name": "manager",
      "outputs": [
        {
          "internalType": "address",
          "name": "",
          "type": "address"
        }
      ],
      "stateMutability": "view",
      "type": "function"
    },
    {
      "inputs": [
        {
          "internalType": "uint256",
          "name": "requestId",
          "type": "uint256"
        },
        {
          "internalType": "uint256[]",
          "name": "randomWords",
          "type": "uint256[]"
        }
      ],
      "name": "rawFulfillRandomWords",
      "outputs": [],
      "stateMutability": "nonpayable",
      "type": "function"
    },
    {
      "inputs": [],
      "name": "setNewManager",
      "outputs": [],
      "stateMutability": "nonpayable",
      "type": "function"
    },
    {
      "stateMutability": "payable",
      "type": "receive"
    }
  ],
  "bytecode": "0x60a060405234801561001057600080fd5b50737a1bac17ccc5b313516c5e16fb24f7659aa5ebed8073ffffffffffffffffffffffffffffffffffffffff1660808173ffffffffffffffffffffffffffffffffffffffff168152505050336000806101000a81548173ffffffffffffffffffffffffffffffffffffffff021916908373ffffffffffffffffffffffffffffffffffffffff1602179055506000600460006101000a81548160ff021916908360018111156100c1576100c0610128565b5b02179055506001600281905550737a1bac17ccc5b313516c5e16fb24f7659aa5ebed600460016101000a81548173ffffffffffffffffffffffffffffffffffffffff021916908373ffffffffffffffffffffffffffffffffffffffff160217905550610157565b7f4e487b7100000000000000000000000000000000000000000000000000000000600052602160045260246000fd5b60805161189061017960003960008181610435015261048901526118906000f3fe60806040526004361061007f5760003560e01c80636d6fe2301161004e5780636d6fe230146102df578063bf0becba1461031c578063de571e4814610333578063e580f47b1461035e57610244565b80631fe543e3146102495780634717f97c14610272578063481c6a75146102895780635aa68ac0146102b457610244565b36610244576000600181111561009857610097610c6f565b5b600460009054906101000a900460ff1660018111156100ba576100b9610c6f565b5b146100fa576040517f08c379a00000000000000000000000000000000000000000000000000000000081526004016100f190610d21565b60405180910390fd5b60008054906101000a900473ffffffffffffffffffffffffffffffffffffffff1673ffffffffffffffffffffffffffffffffffffffff163373ffffffffffffffffffffffffffffffffffffffff1603610188576040517f08c379a000000000000000000000000000000000000000000000000000000000815260040161017f90610d8d565b60405180910390fd5b662386f26fc1000034146101d1576040517f08c379a00000000000000000000000000000000000000000000000000000000081526004016101c890610e1f565b60405180910390fd5b6101da33610389565b610242576001339080600181540180825580915050600190039060005260206000200160009091909190916101000a81548173ffffffffffffffffffffffffffffffffffffffff021916908373ffffffffffffffffffffffffffffffffffffffff1602179055505b005b600080fd5b34801561025557600080fd5b50610270600480360381019061026b9190610fe2565b610433565b005b34801561027e57600080fd5b506102876104f3565b005b34801561029557600080fd5b5061029e61064b565b6040516102ab919061107f565b60405180910390f35b3480156102c057600080fd5b506102c961066f565b6040516102d6919061116a565b60405180910390f35b3480156102eb57600080fd5b506103066004803603810190610301919061118c565b6106fd565b60405161031391906111c8565b60405180910390f35b34801561032857600080fd5b50610331610730565b005b34801561033f57600080fd5b5061034861082a565b60405161035591906111f2565b60405180910390f35b34801561036a57600080fd5b50610373610832565b60405161038091906111f2565b60405180910390f35b6000806000905060005b600180549050811015610429578373ffffffffffffffffffffffffffffffffffffffff16600182815481106103cb576103ca61120d565b5b9060005260206000200160009054906101000a900473ffffffffffffffffffffffffffffffffffffffff1673ffffffffffffffffffffffffffffffffffffffff160361041657600191505b80806104219061126b565b915050610393565b5080915050919050565b7f000000000000000000000000000000000000000000000000000000000000000073ffffffffffffffffffffffffffffffffffffffff163373ffffffffffffffffffffffffffffffffffffffff16146104e557337f00000000000000000000000000000000000000000000000000000000000000006040517f1cf993f40000000000000000000000000000000000000000000000000000000081526004016104dc9291906112b3565b60405180910390fd5b6104ef8282610838565b5050565b6000600181111561050757610506610c6f565b5b600460009054906101000a900460ff16600181111561052957610528610c6f565b5b14610569576040517f08c379a000000000000000000000000000000000000000000000000000000000815260040161056090610d21565b60405180910390fd5b60008054906101000a900473ffffffffffffffffffffffffffffffffffffffff1673ffffffffffffffffffffffffffffffffffffffff163373ffffffffffffffffffffffffffffffffffffffff16146105f7576040517f08c379a00000000000000000000000000000000000000000000000000000000081526004016105ee90611328565b60405180910390fd5b60036001805490501015610640576040517f08c379a0000000000000000000000000000000000000000000000000000000008152600401610637906113ba565b60405180910390fd5b610648610af4565b50565b60008054906101000a900473ffffffffffffffffffffffffffffffffffffffff1681565b606060018054806020026020016040519081016040528092919081815260200182805480156106f357602002820191906000526020600020905b8160009054906101000a900473ffffffffffffffffffffffffffffffffffffffff1673ffffffffffffffffffffffffffffffffffffffff16815260200190600101908083116106a9575b5050505050905090565b60036020528060005260406000206000915054906101000a900473ffffffffffffffffffffffffffffffffffffffff1681565b60018081111561074357610742610c6f565b5b600460009054906101000a900460ff16600181111561076557610764610c6f565b5b146107a5576040517f08c379a000000000000000000000000000000000000000000000000000000000815260040161079c9061144c565b60405180910390fd5b336000806101000a81548173ffffffffffffffffffffffffffffffffffffffff021916908373ffffffffffffffffffffffffffffffffffffffff1602179055506000600460006101000a81548160ff0219169083600181111561080b5761080a610c6f565b5b0217905550600260008154809291906108239061126b565b9190505550565b600047905090565b60025481565b7f35fb612ede5946562a03df60cda3f1d6aaa3ea4d9a0806c704b5529423b937b48160008151811061086d5761086c61120d565b5b602002602001015160405161088291906114b8565b60405180910390a16000600180549050826000815181106108a6576108a561120d565b5b60200260200101516108b89190611515565b90506000600182815481106108d0576108cf61120d565b5b9060005260206000200160009054906101000a900473ffffffffffffffffffffffffffffffffffffffff169050600182815481106109115761091061120d565b5b9060005260206000200160009054906101000a900473ffffffffffffffffffffffffffffffffffffffff1660036000600254815260200190815260200160002060006101000a81548173ffffffffffffffffffffffffffffffffffffffff021916908373ffffffffffffffffffffffffffffffffffffffff16021790555060008060006101000a81548173ffffffffffffffffffffffffffffffffffffffff021916908373ffffffffffffffffffffffffffffffffffffffff160217905550600067ffffffffffffffff8111156109eb576109ea610e9f565b5b604051908082528060200260200182016040528015610a195781602001602082028036833780820191505090505b5060019080519060200190610a2f929190610bc8565b506001600460006101000a81548160ff02191690836001811115610a5657610a55610c6f565b5b02179055508073ffffffffffffffffffffffffffffffffffffffff166108fc479081150290604051600060405180830381858888f19350505050158015610aa1573d6000803e3d6000fd5b507f6a70518dd5b2578e4a044c79aca25023c48b507345cb69faf665f27e26bce65d670de0b6b3a764000047610ad79190611546565b82604051610ae692919061160f565b60405180910390a150505050565b6000600460019054906101000a900473ffffffffffffffffffffffffffffffffffffffff1673ffffffffffffffffffffffffffffffffffffffff16635d3b1d307f4b09e658ed251bcafeebbc69400383d49f344ace09b9576fe248bb02c003fe9f6111b06003622625a060016040518663ffffffff1660e01b8152600401610b809594939291906117c5565b6020604051808303816000875af1158015610b9f573d6000803e3d6000fd5b505050506040513d601f19601f82011682018060405250810190610bc3919061182d565b905090565b828054828255906000526020600020908101928215610c41579160200282015b82811115610c405782518260006101000a81548173ffffffffffffffffffffffffffffffffffffffff021916908373ffffffffffffffffffffffffffffffffffffffff16021790555091602001919060010190610be8565b5b509050610c4e9190610c52565b5090565b5b80821115610c6b576000816000905550600101610c53565b5090565b7f4e487b7100000000000000000000000000000000000000000000000000000000600052602160045260246000fd5b600082825260208201905092915050565b7f4c6f7474657279206973206e6f742079657420737461727465642e2043686f6f60008201527f73652061206d616e616765722066697273742e00000000000000000000000000602082015250565b6000610d0b603383610c9e565b9150610d1682610caf565b604082019050919050565b60006020820190508181036000830152610d3a81610cfe565b9050919050565b7f4d616e616765722063616e6e6f74207061727469636970617465000000000000600082015250565b6000610d77601a83610c9e565b9150610d8282610d41565b602082019050919050565b60006020820190508181036000830152610da681610d6a565b9050919050565b7f4d7573742073656e642065786163746c7920302e303120657468657220746f2060008201527f7061727469636970617465000000000000000000000000000000000000000000602082015250565b6000610e09602b83610c9e565b9150610e1482610dad565b604082019050919050565b60006020820190508181036000830152610e3881610dfc565b9050919050565b6000604051905090565b600080fd5b600080fd5b6000819050919050565b610e6681610e53565b8114610e7157600080fd5b50565b600081359050610e8381610e5d565b92915050565b600080fd5b6000601f19601f8301169050919050565b7f4e487b7100000000000000000000000000000000000000000000000000000000600052604160045260246000fd5b610ed782610e8e565b810181811067ffffffffffffffff82111715610ef657610ef5610e9f565b5b80604052505050565b6000610f09610e3f565b9050610f158282610ece565b919050565b600067ffffffffffffffff821115610f3557610f34610e9f565b5b602082029050602081019050919050565b600080fd5b6000610f5e610f5984610f1a565b610eff565b90508083825260208201905060208402830185811115610f8157610f80610f46565b5b835b81811015610faa5780610f968882610e74565b845260208401935050602081019050610f83565b5050509392505050565b600082601f830112610fc957610fc8610e89565b5b8135610fd9848260208601610f4b565b91505092915050565b60008060408385031215610ff957610ff8610e49565b5b600061100785828601610e74565b925050602083013567ffffffffffffffff81111561102857611027610e4e565b5b61103485828601610fb4565b9150509250929050565b600073ffffffffffffffffffffffffffffffffffffffff82169050919050565b60006110698261103e565b9050919050565b6110798161105e565b82525050565b60006020820190506110946000830184611070565b92915050565b600081519050919050565b600082825260208201905092915050565b6000819050602082019050919050565b60006110d18261103e565b9050919050565b6110e1816110c6565b82525050565b60006110f383836110d8565b60208301905092915050565b6000602082019050919050565b60006111178261109a565b61112181856110a5565b935061112c836110b6565b8060005b8381101561115d57815161114488826110e7565b975061114f836110ff565b925050600181019050611130565b5085935050505092915050565b60006020820190508181036000830152611184818461110c565b905092915050565b6000602082840312156111a2576111a1610e49565b5b60006111b084828501610e74565b91505092915050565b6111c2816110c6565b82525050565b60006020820190506111dd60008301846111b9565b92915050565b6111ec81610e53565b82525050565b600060208201905061120760008301846111e3565b92915050565b7f4e487b7100000000000000000000000000000000000000000000000000000000600052603260045260246000fd5b7f4e487b7100000000000000000000000000000000000000000000000000000000600052601160045260246000fd5b600061127682610e53565b91507fffffffffffffffffffffffffffffffffffffffffffffffffffffffffffffffff82036112a8576112a761123c565b5b600182019050919050565b60006040820190506112c86000830185611070565b6112d56020830184611070565b9392505050565b7f4f6e6c79206d616e616765722063616e206765742074686520726573756c7473600082015250565b6000611312602083610c9e565b915061131d826112dc565b602082019050919050565b6000602082019050818103600083015261134181611305565b9050919050565b7f4c6f7474657279206d7573742068617665206174206c6561737420332070617260008201527f7469636970616e74730000000000000000000000000000000000000000000000602082015250565b60006113a4602983610c9e565b91506113af82611348565b604082019050919050565b600060208201905081810360008301526113d381611397565b9050919050565b7f43616e6e6f74206368616e6765206d616e6167657220696e206d6964646c652060008201527f6f662061206c6f74746572790000000000000000000000000000000000000000602082015250565b6000611436602c83610c9e565b9150611441826113da565b604082019050919050565b6000602082019050818103600083015261146581611429565b9050919050565b7f52656365697665642061207472756c792072616e646f6d206e756d6265720000600082015250565b60006114a2601e83610c9e565b91506114ad8261146c565b602082019050919050565b600060408201905081810360008301526114d181611495565b90506114e060208301846111e3565b92915050565b7f4e487b7100000000000000000000000000000000000000000000000000000000600052601260045260246000fd5b600061152082610e53565b915061152b83610e53565b92508261153b5761153a6114e6565b5b828206905092915050565b600061155182610e53565b915061155c83610e53565b92508261156c5761156b6114e6565b5b828204905092915050565b7f41206c6f747465727920726f756e642068617320656e6465642e20466f6c6c6f60008201527f77696e6720617265207468652077696e6e696e6720616d6f756e742028696e2060208201527f65746865722920616e64207468652077696e6e65723a20000000000000000000604082015250565b60006115f9605783610c9e565b915061160482611577565b606082019050919050565b60006060820190508181036000830152611628816115ec565b905061163760208301856111e3565b61164460408301846111b9565b9392505050565b6000819050919050565b6000819050919050565b60008160001b9050919050565b600061168761168261167d8461164b565b61165f565b611655565b9050919050565b6116978161166c565b82525050565b6000819050919050565b600067ffffffffffffffff82169050919050565b6000819050919050565b60006116e06116db6116d68461169d565b6116bb565b6116a7565b9050919050565b6116f0816116c5565b82525050565b6000819050919050565b600061ffff82169050919050565b600061172961172461171f846116f6565b6116bb565b611700565b9050919050565b6117398161170e565b82525050565b6000819050919050565b600063ffffffff82169050919050565b600061177461176f61176a8461173f565b6116bb565b611749565b9050919050565b61178481611759565b82525050565b6000819050919050565b60006117af6117aa6117a58461178a565b6116bb565b611749565b9050919050565b6117bf81611794565b82525050565b600060a0820190506117da600083018861168e565b6117e760208301876116e7565b6117f46040830186611730565b611801606083018561177b565b61180e60808301846117b6565b9695505050505050565b60008151905061182781610e5d565b92915050565b60006020828403121561184357611842610e49565b5b600061185184828501611818565b9150509291505056fea2646970667358221220760ceec4f765b6ed0f1c286008527c94cb929f5670593ad4e2d599483fc05f0164736f6c63430008110033",
  "linkReferences": {},
  "deployedLinkReferences": {}
}